{
  "_format": "hh-sol-artifact-1",
  "contractName": "Partcipants",
  "sourceName": "contracts/Participants.sol",
  "abi": [
    {
      "inputs": [],
      "stateMutability": "nonpayable",
      "type": "constructor"
    },
    {
      "inputs": [],
      "name": "AccessControlBadConfirmation",
      "type": "error"
    },
    {
      "inputs": [
        {
          "internalType": "address",
          "name": "account",
          "type": "address"
        },
        {
          "internalType": "bytes32",
          "name": "neededRole",
          "type": "bytes32"
        }
      ],
      "name": "AccessControlUnauthorizedAccount",
      "type": "error"
    },
    {
      "anonymous": false,
      "inputs": [
        {
          "indexed": true,
          "internalType": "address",
          "name": "participant",
          "type": "address"
        },
        {
          "indexed": false,
          "internalType": "string",
          "name": "role",
          "type": "string"
        },
        {
          "indexed": false,
          "internalType": "string",
          "name": "name",
          "type": "string"
        }
      ],
      "name": "ParticipantRegistered",
      "type": "event"
    },
    {
      "anonymous": false,
      "inputs": [
        {
          "indexed": true,
          "internalType": "address",
          "name": "participant",
          "type": "address"
        },
        {
          "indexed": false,
          "internalType": "string",
          "name": "newRole",
          "type": "string"
        }
      ],
      "name": "ParticipantRoleUpdated",
      "type": "event"
    },
    {
      "anonymous": false,
      "inputs": [
        {
          "indexed": true,
          "internalType": "address",
          "name": "participant",
          "type": "address"
        },
        {
          "indexed": false,
          "internalType": "bool",
          "name": "isActive",
          "type": "bool"
        }
      ],
      "name": "ParticipantStatusUpdated",
      "type": "event"
    },
    {
      "anonymous": false,
      "inputs": [
        {
          "indexed": true,
          "internalType": "bytes32",
          "name": "role",
          "type": "bytes32"
        },
        {
          "indexed": true,
          "internalType": "bytes32",
          "name": "previousAdminRole",
          "type": "bytes32"
        },
        {
          "indexed": true,
          "internalType": "bytes32",
          "name": "newAdminRole",
          "type": "bytes32"
        }
      ],
      "name": "RoleAdminChanged",
      "type": "event"
    },
    {
      "anonymous": false,
      "inputs": [
        {
          "indexed": true,
          "internalType": "bytes32",
          "name": "role",
          "type": "bytes32"
        },
        {
          "indexed": true,
          "internalType": "address",
          "name": "account",
          "type": "address"
        },
        {
          "indexed": true,
          "internalType": "address",
          "name": "sender",
          "type": "address"
        }
      ],
      "name": "RoleGranted",
      "type": "event"
    },
    {
      "anonymous": false,
      "inputs": [
        {
          "indexed": true,
          "internalType": "bytes32",
          "name": "role",
          "type": "bytes32"
        },
        {
          "indexed": true,
          "internalType": "address",
          "name": "account",
          "type": "address"
        },
        {
          "indexed": true,
          "internalType": "address",
          "name": "sender",
          "type": "address"
        }
      ],
      "name": "RoleRevoked",
      "type": "event"
    },
    {
      "inputs": [],
      "name": "AUDITOR_ROLE",
      "outputs": [
        {
          "internalType": "bytes32",
          "name": "",
          "type": "bytes32"
        }
      ],
      "stateMutability": "view",
      "type": "function"
    },
    {
      "inputs": [],
      "name": "DEFAULT_ADMIN_ROLE",
      "outputs": [
        {
          "internalType": "bytes32",
          "name": "",
          "type": "bytes32"
        }
      ],
      "stateMutability": "view",
      "type": "function"
    },
    {
      "inputs": [],
      "name": "INSPECTOR_ROLE",
      "outputs": [
        {
          "internalType": "bytes32",
          "name": "",
          "type": "bytes32"
        }
      ],
      "stateMutability": "view",
      "type": "function"
    },
    {
      "inputs": [],
      "name": "MINER_ROLE",
      "outputs": [
        {
          "internalType": "bytes32",
          "name": "",
          "type": "bytes32"
        }
      ],
      "stateMutability": "view",
      "type": "function"
    },
    {
      "inputs": [],
      "name": "REFINER_ROLE",
      "outputs": [
        {
          "internalType": "bytes32",
          "name": "",
          "type": "bytes32"
        }
      ],
      "stateMutability": "view",
      "type": "function"
    },
    {
      "inputs": [],
      "name": "TRANSPORTER_ROLE",
      "outputs": [
        {
          "internalType": "bytes32",
          "name": "",
          "type": "bytes32"
        }
      ],
      "stateMutability": "view",
      "type": "function"
    },
    {
      "inputs": [
        {
          "internalType": "string",
          "name": "_role",
          "type": "string"
        }
      ],
      "name": "getParticipantsByRole",
      "outputs": [
        {
          "components": [
            {
              "internalType": "address",
              "name": "participantAddress",
              "type": "address"
            },
            {
              "internalType": "string",
              "name": "name",
              "type": "string"
            },
            {
              "internalType": "string",
              "name": "location",
              "type": "string"
            },
            {
              "internalType": "string",
              "name": "role",
              "type": "string"
            },
            {
              "internalType": "bool",
              "name": "isActive",
              "type": "bool"
            },
            {
              "internalType": "uint256",
              "name": "dateRegistered",
              "type": "uint256"
            }
          ],
          "internalType": "struct Partcipants.Participant[]",
          "name": "",
          "type": "tuple[]"
        }
      ],
      "stateMutability": "view",
      "type": "function"
    },
    {
      "inputs": [
        {
          "internalType": "bytes32",
          "name": "role",
          "type": "bytes32"
        }
      ],
      "name": "getRoleAdmin",
      "outputs": [
        {
          "internalType": "bytes32",
          "name": "",
          "type": "bytes32"
        }
      ],
      "stateMutability": "view",
      "type": "function"
    },
    {
      "inputs": [
        {
          "internalType": "bytes32",
          "name": "role",
          "type": "bytes32"
        },
        {
          "internalType": "address",
          "name": "account",
          "type": "address"
        }
      ],
      "name": "grantRole",
      "outputs": [],
      "stateMutability": "nonpayable",
      "type": "function"
    },
    {
      "inputs": [
        {
          "internalType": "bytes32",
          "name": "role",
          "type": "bytes32"
        },
        {
          "internalType": "address",
          "name": "account",
          "type": "address"
        }
      ],
      "name": "hasRole",
      "outputs": [
        {
          "internalType": "bool",
          "name": "",
          "type": "bool"
        }
      ],
      "stateMutability": "view",
      "type": "function"
    },
    {
      "inputs": [
        {
          "internalType": "uint256",
          "name": "",
          "type": "uint256"
        }
      ],
      "name": "participantList",
      "outputs": [
        {
          "internalType": "address",
          "name": "",
          "type": "address"
        }
      ],
      "stateMutability": "view",
      "type": "function"
    },
    {
      "inputs": [
        {
          "internalType": "address",
          "name": "",
          "type": "address"
        }
      ],
      "name": "participants",
      "outputs": [
        {
          "internalType": "address",
          "name": "participantAddress",
          "type": "address"
        },
        {
          "internalType": "string",
          "name": "name",
          "type": "string"
        },
        {
          "internalType": "string",
          "name": "location",
          "type": "string"
        },
        {
          "internalType": "string",
          "name": "role",
          "type": "string"
        },
        {
          "internalType": "bool",
          "name": "isActive",
          "type": "bool"
        },
        {
          "internalType": "uint256",
          "name": "dateRegistered",
          "type": "uint256"
        }
      ],
      "stateMutability": "view",
      "type": "function"
    },
    {
      "inputs": [
        {
          "internalType": "address",
          "name": "_participantAddress",
          "type": "address"
        },
        {
          "internalType": "string",
          "name": "_name",
          "type": "string"
        },
        {
          "internalType": "string",
          "name": "_location",
          "type": "string"
        },
        {
          "internalType": "string",
          "name": "_role",
          "type": "string"
        }
      ],
      "name": "registerParticipant",
      "outputs": [],
      "stateMutability": "nonpayable",
      "type": "function"
    },
    {
      "inputs": [
        {
          "internalType": "bytes32",
          "name": "role",
          "type": "bytes32"
        },
        {
          "internalType": "address",
          "name": "callerConfirmation",
          "type": "address"
        }
      ],
      "name": "renounceRole",
      "outputs": [],
      "stateMutability": "nonpayable",
      "type": "function"
    },
    {
      "inputs": [
        {
          "internalType": "bytes32",
          "name": "role",
          "type": "bytes32"
        },
        {
          "internalType": "address",
          "name": "account",
          "type": "address"
        }
      ],
      "name": "revokeRole",
      "outputs": [],
      "stateMutability": "nonpayable",
      "type": "function"
    },
    {
      "inputs": [
        {
          "internalType": "bytes4",
          "name": "interfaceId",
          "type": "bytes4"
        }
      ],
      "name": "supportsInterface",
      "outputs": [
        {
          "internalType": "bool",
          "name": "",
          "type": "bool"
        }
      ],
      "stateMutability": "view",
      "type": "function"
    },
    {
      "inputs": [
        {
          "internalType": "address",
          "name": "_participantAddress",
          "type": "address"
        },
        {
          "internalType": "bool",
          "name": "_isActive",
          "type": "bool"
        }
      ],
      "name": "updateParticipantStatus",
      "outputs": [],
      "stateMutability": "nonpayable",
      "type": "function"
    },
    {
      "inputs": [
        {
          "internalType": "address",
          "name": "_participantAddress",
          "type": "address"
        },
        {
          "internalType": "string",
          "name": "_newRole",
          "type": "string"
        }
      ],
      "name": "updateRole",
      "outputs": [],
      "stateMutability": "nonpayable",
      "type": "function"
    }
  ],
  "bytecode": "0x608060405234801561001057600080fd5b506100246000801b3361002a60201b60201c565b50610199565b600061003c838361012760201b60201c565b61011c57600160008085815260200190815260200160002060000160008473ffffffffffffffffffffffffffffffffffffffff1673ffffffffffffffffffffffffffffffffffffffff16815260200190815260200160002060006101000a81548160ff0219169083151502179055506100b961019160201b60201c565b73ffffffffffffffffffffffffffffffffffffffff168273ffffffffffffffffffffffffffffffffffffffff16847f2f8788117e7eff1d82e926ec794901d17c78024a50270940304540a733656f0d60405160405180910390a460019050610121565b600090505b92915050565b600080600084815260200190815260200160002060000160008373ffffffffffffffffffffffffffffffffffffffff1673ffffffffffffffffffffffffffffffffffffffff16815260200190815260200160002060009054906101000a900460ff16905092915050565b600033905090565b61274d806101a86000396000f3fe608060405234801561001057600080fd5b50600436106101165760003560e01c80636394f6e6116100a257806391d148541161007157806391d14854146102e4578063a217fddf14610314578063d547741f14610332578063d6d09d461461034e578063e3a3c5221461037e57610116565b80636394f6e61461026e5780636e1d616e1461028c578063775c6f40146102aa57806379451cd7146102c657610116565b80632f2ff15d116100e95780632f2ff15d146101e057806336568abe146101fc5780633b0683c4146102185780634eabbe77146102345780635ecd9e251461025257610116565b806301ffc9a71461011b57806309e69ede1461014b5780630e6fdaa114610180578063248a9ca3146101b0575b600080fd5b610135600480360381019061013091906117fe565b61039c565b6040516101429190611846565b60405180910390f35b610165600480360381019061016091906118bf565b610416565b604051610177969594939291906119a4565b60405180910390f35b61019a60048036038101906101959190611a46565b610617565b6040516101a79190611a73565b60405180910390f35b6101ca60048036038101906101c59190611ac4565b610656565b6040516101d79190611b00565b60405180910390f35b6101fa60048036038101906101f59190611b1b565b610675565b005b61021660048036038101906102119190611b1b565b610697565b005b610232600480360381019061022d9190611b87565b610712565b005b61023c61089d565b6040516102499190611b00565b60405180910390f35b61026c60048036038101906102679190611cfc565b6108c1565b005b610276610cd5565b6040516102839190611b00565b60405180910390f35b610294610cf9565b6040516102a19190611b00565b60405180910390f35b6102c460048036038101906102bf9190611db7565b610d1d565b005b6102ce610f4d565b6040516102db9190611b00565b60405180910390f35b6102fe60048036038101906102f99190611b1b565b610f71565b60405161030b9190611846565b60405180910390f35b61031c610fdb565b6040516103299190611b00565b60405180910390f35b61034c60048036038101906103479190611b1b565b610fe2565b005b61036860048036038101906103639190611e13565b611004565b604051610375919061202c565b60405180910390f35b610386611466565b6040516103939190611b00565b60405180910390f35b60007f7965db0b000000000000000000000000000000000000000000000000000000007bffffffffffffffffffffffffffffffffffffffffffffffffffffffff1916827bffffffffffffffffffffffffffffffffffffffffffffffffffffffff1916148061040f575061040e8261148a565b5b9050919050565b60016020528060005260406000206000915090508060000160009054906101000a900473ffffffffffffffffffffffffffffffffffffffff169080600101805461045f9061207d565b80601f016020809104026020016040519081016040528092919081815260200182805461048b9061207d565b80156104d85780601f106104ad576101008083540402835291602001916104d8565b820191906000526020600020905b8154815290600101906020018083116104bb57829003601f168201915b5050505050908060020180546104ed9061207d565b80601f01602080910402602001604051908101604052809291908181526020018280546105199061207d565b80156105665780601f1061053b57610100808354040283529160200191610566565b820191906000526020600020905b81548152906001019060200180831161054957829003601f168201915b50505050509080600301805461057b9061207d565b80601f01602080910402602001604051908101604052809291908181526020018280546105a79061207d565b80156105f45780601f106105c9576101008083540402835291602001916105f4565b820191906000526020600020905b8154815290600101906020018083116105d757829003601f168201915b5050505050908060040160009054906101000a900460ff16908060050154905086565b6002818154811061062757600080fd5b906000526020600020016000915054906101000a900473ffffffffffffffffffffffffffffffffffffffff1681565b6000806000838152602001908152602001600020600101549050919050565b61067e82610656565b610687816114f4565b6106918383611508565b50505050565b61069f6115f9565b73ffffffffffffffffffffffffffffffffffffffff168173ffffffffffffffffffffffffffffffffffffffff1614610703576040517f6697b23200000000000000000000000000000000000000000000000000000000815260040160405180910390fd5b61070d8282611601565b505050565b6000801b61071f816114f4565b600073ffffffffffffffffffffffffffffffffffffffff16600160008573ffffffffffffffffffffffffffffffffffffffff1673ffffffffffffffffffffffffffffffffffffffff16815260200190815260200160002060000160009054906101000a900473ffffffffffffffffffffffffffffffffffffffff1673ffffffffffffffffffffffffffffffffffffffff16036107f0576040517f08c379a00000000000000000000000000000000000000000000000000000000081526004016107e790612120565b60405180910390fd5b81600160008573ffffffffffffffffffffffffffffffffffffffff1673ffffffffffffffffffffffffffffffffffffffff16815260200190815260200160002060040160006101000a81548160ff0219169083151502179055508273ffffffffffffffffffffffffffffffffffffffff167fd40dcd72ce9f37eae8fa386eedc00d30202958cd51af2f3f5031d3331092b25a836040516108909190611846565b60405180910390a2505050565b7fddaa901e2fe3bda354fe0ede2785152d5c109282a613fe024a056a3e66c41bb381565b6000801b6108ce816114f4565b600073ffffffffffffffffffffffffffffffffffffffff16600160008773ffffffffffffffffffffffffffffffffffffffff1673ffffffffffffffffffffffffffffffffffffffff16815260200190815260200160002060000160009054906101000a900473ffffffffffffffffffffffffffffffffffffffff1673ffffffffffffffffffffffffffffffffffffffff161461099f576040517f08c379a00000000000000000000000000000000000000000000000000000000081526004016109969061218c565b60405180910390fd5b6000826040516020016109b291906121e8565b6040516020818303038152906040528051906020012090507fa952726ef2588ad078edf35b066f7c7406e207cb0003bbaba8cb53eba9553e72811480610a1757507fa977e1a3444218ff332edf735c56487bbe59922b15c88777d443eb8b78020f4d81145b80610a4157507fddaa901e2fe3bda354fe0ede2785152d5c109282a613fe024a056a3e66c41bb381145b80610a6b57507f59a1c48e5837ad7a7f3dcedcbe129bf3249ec4fbf651fd4f5e2600ead39fe2f581145b80610a9557507f273dcf2136c7d8ef632bb8ef13dbca69a8f36fa620c7468671b3153d46a211c081145b610ad4576040517f08c379a0000000000000000000000000000000000000000000000000000000008152600401610acb9061224b565b60405180910390fd5b6040518060c001604052808773ffffffffffffffffffffffffffffffffffffffff16815260200186815260200185815260200184815260200160011515815260200142815250600160008873ffffffffffffffffffffffffffffffffffffffff1673ffffffffffffffffffffffffffffffffffffffff16815260200190815260200160002060008201518160000160006101000a81548173ffffffffffffffffffffffffffffffffffffffff021916908373ffffffffffffffffffffffffffffffffffffffff1602179055506020820151816001019081610bb59190612417565b506040820151816002019081610bcb9190612417565b506060820151816003019081610be19190612417565b5060808201518160040160006101000a81548160ff02191690831515021790555060a082015181600501559050506002869080600181540180825580915050600190039060005260206000200160009091909190916101000a81548173ffffffffffffffffffffffffffffffffffffffff021916908373ffffffffffffffffffffffffffffffffffffffff160217905550610c7c8187611508565b508573ffffffffffffffffffffffffffffffffffffffff167f09f6343983a89cd9ef42910b46255d2371f6d6a76f4f526c92ffac9dbc17ba118487604051610cc59291906124e9565b60405180910390a2505050505050565b7fa952726ef2588ad078edf35b066f7c7406e207cb0003bbaba8cb53eba9553e7281565b7f59a1c48e5837ad7a7f3dcedcbe129bf3249ec4fbf651fd4f5e2600ead39fe2f581565b6000801b610d2a816114f4565b600073ffffffffffffffffffffffffffffffffffffffff16600160008573ffffffffffffffffffffffffffffffffffffffff1673ffffffffffffffffffffffffffffffffffffffff16815260200190815260200160002060000160009054906101000a900473ffffffffffffffffffffffffffffffffffffffff1673ffffffffffffffffffffffffffffffffffffffff1603610dfb576040517f08c379a0000000000000000000000000000000000000000000000000000000008152600401610df29061256c565b60405180910390fd5b6000600160008573ffffffffffffffffffffffffffffffffffffffff1673ffffffffffffffffffffffffffffffffffffffff168152602001908152602001600020600301604051602001610e4f919061260f565b604051602081830303815290604052805190602001209050610e718185611601565b50600083604051602001610e8591906121e8565b604051602081830303815290604052805190602001209050610ea78186611508565b5083600160008773ffffffffffffffffffffffffffffffffffffffff1673ffffffffffffffffffffffffffffffffffffffff1681526020019081526020016000206003019081610ef79190612417565b508473ffffffffffffffffffffffffffffffffffffffff167fab85416fd8014413914f4cac35f34a1ed8b9e1a2af22b628c288f1026a441e6b85604051610f3e9190612626565b60405180910390a25050505050565b7fa977e1a3444218ff332edf735c56487bbe59922b15c88777d443eb8b78020f4d81565b600080600084815260200190815260200160002060000160008373ffffffffffffffffffffffffffffffffffffffff1673ffffffffffffffffffffffffffffffffffffffff16815260200190815260200160002060009054906101000a900460ff16905092915050565b6000801b81565b610feb82610656565b610ff4816114f4565b610ffe8383611601565b50505050565b606060008260405160200161101991906121e8565b604051602081830303815290604052805190602001209050600080600090505b6002805490508110156110af5761108e836002838154811061105e5761105d612648565b5b9060005260206000200160009054906101000a900473ffffffffffffffffffffffffffffffffffffffff16610f71565b156110a257818061109e906126a6565b9250505b8080600101915050611039565b5060008167ffffffffffffffff8111156110cc576110cb611bd1565b5b60405190808252806020026020018201604052801561110557816020015b6110f2611744565b8152602001906001900390816110ea5790505b5090506000805b60028054905081101561145957611161856002838154811061113157611130612648565b5b9060005260206000200160009054906101000a900473ffffffffffffffffffffffffffffffffffffffff16610f71565b1561144c57600160006002838154811061117e5761117d612648565b5b9060005260206000200160009054906101000a900473ffffffffffffffffffffffffffffffffffffffff1673ffffffffffffffffffffffffffffffffffffffff1673ffffffffffffffffffffffffffffffffffffffff1681526020019081526020016000206040518060c00160405290816000820160009054906101000a900473ffffffffffffffffffffffffffffffffffffffff1673ffffffffffffffffffffffffffffffffffffffff1673ffffffffffffffffffffffffffffffffffffffff1681526020016001820180546112549061207d565b80601f01602080910402602001604051908101604052809291908181526020018280546112809061207d565b80156112cd5780601f106112a2576101008083540402835291602001916112cd565b820191906000526020600020905b8154815290600101906020018083116112b057829003601f168201915b505050505081526020016002820180546112e69061207d565b80601f01602080910402602001604051908101604052809291908181526020018280546113129061207d565b801561135f5780601f106113345761010080835404028352916020019161135f565b820191906000526020600020905b81548152906001019060200180831161134257829003601f168201915b505050505081526020016003820180546113789061207d565b80601f01602080910402602001604051908101604052809291908181526020018280546113a49061207d565b80156113f15780601f106113c6576101008083540402835291602001916113f1565b820191906000526020600020905b8154815290600101906020018083116113d457829003601f168201915b505050505081526020016004820160009054906101000a900460ff1615151515815260200160058201548152505083838151811061143257611431612648565b5b60200260200101819052508180611448906126a6565b9250505b808060010191505061110c565b5081945050505050919050565b7f273dcf2136c7d8ef632bb8ef13dbca69a8f36fa620c7468671b3153d46a211c081565b60007f01ffc9a7000000000000000000000000000000000000000000000000000000007bffffffffffffffffffffffffffffffffffffffffffffffffffffffff1916827bffffffffffffffffffffffffffffffffffffffffffffffffffffffff1916149050919050565b611505816115006115f9565b6116f3565b50565b60006115148383610f71565b6115ee57600160008085815260200190815260200160002060000160008473ffffffffffffffffffffffffffffffffffffffff1673ffffffffffffffffffffffffffffffffffffffff16815260200190815260200160002060006101000a81548160ff02191690831515021790555061158b6115f9565b73ffffffffffffffffffffffffffffffffffffffff168273ffffffffffffffffffffffffffffffffffffffff16847f2f8788117e7eff1d82e926ec794901d17c78024a50270940304540a733656f0d60405160405180910390a4600190506115f3565b600090505b92915050565b600033905090565b600061160d8383610f71565b156116e857600080600085815260200190815260200160002060000160008473ffffffffffffffffffffffffffffffffffffffff1673ffffffffffffffffffffffffffffffffffffffff16815260200190815260200160002060006101000a81548160ff0219169083151502179055506116856115f9565b73ffffffffffffffffffffffffffffffffffffffff168273ffffffffffffffffffffffffffffffffffffffff16847ff6391f5c32d9c69d2a47ea670b442974b53935d1edc7fd64eb21e047a839171b60405160405180910390a4600190506116ed565b600090505b92915050565b6116fd8282610f71565b6117405780826040517fe2517d3f0000000000000000000000000000000000000000000000000000000081526004016117379291906126ee565b60405180910390fd5b5050565b6040518060c00160405280600073ffffffffffffffffffffffffffffffffffffffff168152602001606081526020016060815260200160608152602001600015158152602001600081525090565b6000604051905090565b600080fd5b600080fd5b60007fffffffff0000000000000000000000000000000000000000000000000000000082169050919050565b6117db816117a6565b81146117e657600080fd5b50565b6000813590506117f8816117d2565b92915050565b6000602082840312156118145761181361179c565b5b6000611822848285016117e9565b91505092915050565b60008115159050919050565b6118408161182b565b82525050565b600060208201905061185b6000830184611837565b92915050565b600073ffffffffffffffffffffffffffffffffffffffff82169050919050565b600061188c82611861565b9050919050565b61189c81611881565b81146118a757600080fd5b50565b6000813590506118b981611893565b92915050565b6000602082840312156118d5576118d461179c565b5b60006118e3848285016118aa565b91505092915050565b6118f581611881565b82525050565b600081519050919050565b600082825260208201905092915050565b60005b8381101561193557808201518184015260208101905061191a565b60008484015250505050565b6000601f19601f8301169050919050565b600061195d826118fb565b6119678185611906565b9350611977818560208601611917565b61198081611941565b840191505092915050565b6000819050919050565b61199e8161198b565b82525050565b600060c0820190506119b960008301896118ec565b81810360208301526119cb8188611952565b905081810360408301526119df8187611952565b905081810360608301526119f38186611952565b9050611a026080830185611837565b611a0f60a0830184611995565b979650505050505050565b611a238161198b565b8114611a2e57600080fd5b50565b600081359050611a4081611a1a565b92915050565b600060208284031215611a5c57611a5b61179c565b5b6000611a6a84828501611a31565b91505092915050565b6000602082019050611a8860008301846118ec565b92915050565b6000819050919050565b611aa181611a8e565b8114611aac57600080fd5b50565b600081359050611abe81611a98565b92915050565b600060208284031215611ada57611ad961179c565b5b6000611ae884828501611aaf565b91505092915050565b611afa81611a8e565b82525050565b6000602082019050611b156000830184611af1565b92915050565b60008060408385031215611b3257611b3161179c565b5b6000611b4085828601611aaf565b9250506020611b51858286016118aa565b9150509250929050565b611b648161182b565b8114611b6f57600080fd5b50565b600081359050611b8181611b5b565b92915050565b60008060408385031215611b9e57611b9d61179c565b5b6000611bac858286016118aa565b9250506020611bbd85828601611b72565b9150509250929050565b600080fd5b600080fd5b7f4e487b7100000000000000000000000000000000000000000000000000000000600052604160045260246000fd5b611c0982611941565b810181811067ffffffffffffffff82111715611c2857611c27611bd1565b5b80604052505050565b6000611c3b611792565b9050611c478282611c00565b919050565b600067ffffffffffffffff821115611c6757611c66611bd1565b5b611c7082611941565b9050602081019050919050565b82818337600083830152505050565b6000611c9f611c9a84611c4c565b611c31565b905082815260208101848484011115611cbb57611cba611bcc565b5b611cc6848285611c7d565b509392505050565b600082601f830112611ce357611ce2611bc7565b5b8135611cf3848260208601611c8c565b91505092915050565b60008060008060808587031215611d1657611d1561179c565b5b6000611d24878288016118aa565b945050602085013567ffffffffffffffff811115611d4557611d446117a1565b5b611d5187828801611cce565b935050604085013567ffffffffffffffff811115611d7257611d716117a1565b5b611d7e87828801611cce565b925050606085013567ffffffffffffffff811115611d9f57611d9e6117a1565b5b611dab87828801611cce565b91505092959194509250565b60008060408385031215611dce57611dcd61179c565b5b6000611ddc858286016118aa565b925050602083013567ffffffffffffffff811115611dfd57611dfc6117a1565b5b611e0985828601611cce565b9150509250929050565b600060208284031215611e2957611e2861179c565b5b600082013567ffffffffffffffff811115611e4757611e466117a1565b5b611e5384828501611cce565b91505092915050565b600081519050919050565b600082825260208201905092915050565b6000819050602082019050919050565b611e9181611881565b82525050565b600082825260208201905092915050565b6000611eb3826118fb565b611ebd8185611e97565b9350611ecd818560208601611917565b611ed681611941565b840191505092915050565b611eea8161182b565b82525050565b611ef98161198b565b82525050565b600060c083016000830151611f176000860182611e88565b5060208301518482036020860152611f2f8282611ea8565b91505060408301518482036040860152611f498282611ea8565b91505060608301518482036060860152611f638282611ea8565b9150506080830151611f786080860182611ee1565b5060a0830151611f8b60a0860182611ef0565b508091505092915050565b6000611fa28383611eff565b905092915050565b6000602082019050919050565b6000611fc282611e5c565b611fcc8185611e67565b935083602082028501611fde85611e78565b8060005b8581101561201a5784840389528151611ffb8582611f96565b945061200683611faa565b925060208a01995050600181019050611fe2565b50829750879550505050505092915050565b600060208201905081810360008301526120468184611fb7565b905092915050565b7f4e487b7100000000000000000000000000000000000000000000000000000000600052602260045260246000fd5b6000600282049050600182168061209557607f821691505b6020821081036120a8576120a761204e565b5b50919050565b7f5061727469636970616e7420796f7527726520747279696e6720746f2075706460008201527f617465206973206e6f7420526567697374657265642121000000000000000000602082015250565b600061210a603783611906565b9150612115826120ae565b604082019050919050565b60006020820190508181036000830152612139816120fd565b9050919050565b7f5061727469636970616e7420416c726561647920526567697374657265642121600082015250565b6000612176602083611906565b915061218182612140565b602082019050919050565b600060208201905081810360008301526121a581612169565b9050919050565b600081905092915050565b60006121c2826118fb565b6121cc81856121ac565b93506121dc818560208601611917565b80840191505092915050565b60006121f482846121b7565b915081905092915050565b7f494e56414c494420524f4c450000000000000000000000000000000000000000600082015250565b6000612235600c83611906565b9150612240826121ff565b602082019050919050565b6000602082019050818103600083015261226481612228565b9050919050565b60008190508160005260206000209050919050565b60006020601f8301049050919050565b600082821b905092915050565b6000600883026122cd7fffffffffffffffffffffffffffffffffffffffffffffffffffffffffffffffff82612290565b6122d78683612290565b95508019841693508086168417925050509392505050565b6000819050919050565b600061231461230f61230a8461198b565b6122ef565b61198b565b9050919050565b6000819050919050565b61232e836122f9565b61234261233a8261231b565b84845461229d565b825550505050565b600090565b61235761234a565b612362818484612325565b505050565b5b818110156123865761237b60008261234f565b600181019050612368565b5050565b601f8211156123cb5761239c8161226b565b6123a584612280565b810160208510156123b4578190505b6123c86123c085612280565b830182612367565b50505b505050565b600082821c905092915050565b60006123ee600019846008026123d0565b1980831691505092915050565b600061240783836123dd565b9150826002028217905092915050565b612420826118fb565b67ffffffffffffffff81111561243957612438611bd1565b5b612443825461207d565b61244e82828561238a565b600060209050601f831160018114612481576000841561246f578287015190505b61247985826123fb565b8655506124e1565b601f19841661248f8661226b565b60005b828110156124b757848901518255600182019150602085019450602081019050612492565b868310156124d457848901516124d0601f8916826123dd565b8355505b6001600288020188555050505b505050505050565b600060408201905081810360008301526125038185611952565b905081810360208301526125178184611952565b90509392505050565b7f5061727469636970616e74206973204e6f742052656769737465726564000000600082015250565b6000612556601d83611906565b915061256182612520565b602082019050919050565b6000602082019050818103600083015261258581612549565b9050919050565b600081546125998161207d565b6125a381866121ac565b945060018216600081146125be57600181146125d357612606565b60ff1983168652811515820286019350612606565b6125dc8561226b565b60005b838110156125fe578154818901526001820191506020810190506125df565b838801955050505b50505092915050565b600061261b828461258c565b915081905092915050565b600060208201905081810360008301526126408184611952565b905092915050565b7f4e487b7100000000000000000000000000000000000000000000000000000000600052603260045260246000fd5b7f4e487b7100000000000000000000000000000000000000000000000000000000600052601160045260246000fd5b60006126b18261198b565b91507fffffffffffffffffffffffffffffffffffffffffffffffffffffffffffffffff82036126e3576126e2612677565b5b600182019050919050565b600060408201905061270360008301856118ec565b6127106020830184611af1565b939250505056fea264697066735822122020a7b194fbbc66c24d2a90f6e9deb87a60e05f4f8bdf824d8aa6717e61109fa064736f6c634300081b0033",
  "linkReferences": {},
  "deployedLinkReferences": {}
}