{
  "_format": "hh-sol-artifact-1",
  "contractName": "SupplyChain",
  "sourceName": "contracts/Supplychain.sol",
  "abi": [
    {
      "inputs": [],
      "stateMutability": "nonpayable",
      "type": "constructor"
    },
    {
      "inputs": [],
      "name": "AccessControlBadConfirmation",
      "type": "error"
    },
    {
      "inputs": [
        {
          "internalType": "address",
          "name": "account",
          "type": "address"
        },
        {
          "internalType": "bytes32",
          "name": "neededRole",
          "type": "bytes32"
        }
      ],
      "name": "AccessControlUnauthorizedAccount",
      "type": "error"
    },
    {
      "anonymous": false,
      "inputs": [
        {
          "indexed": true,
          "internalType": "uint256",
          "name": "batchId",
          "type": "uint256"
        },
        {
          "indexed": true,
          "internalType": "address",
          "name": "owner",
          "type": "address"
        },
        {
          "indexed": false,
          "internalType": "string",
          "name": "location",
          "type": "string"
        }
      ],
      "name": "BatchCreated",
      "type": "event"
    },
    {
      "anonymous": false,
      "inputs": [
        {
          "indexed": true,
          "internalType": "uint256",
          "name": "batchId",
          "type": "uint256"
        },
        {
          "indexed": true,
          "internalType": "address",
          "name": "newOwner",
          "type": "address"
        }
      ],
      "name": "OwnershipTransferred",
      "type": "event"
    },
    {
      "anonymous": false,
      "inputs": [
        {
          "indexed": true,
          "internalType": "bytes32",
          "name": "role",
          "type": "bytes32"
        },
        {
          "indexed": true,
          "internalType": "bytes32",
          "name": "previousAdminRole",
          "type": "bytes32"
        },
        {
          "indexed": true,
          "internalType": "bytes32",
          "name": "newAdminRole",
          "type": "bytes32"
        }
      ],
      "name": "RoleAdminChanged",
      "type": "event"
    },
    {
      "anonymous": false,
      "inputs": [
        {
          "indexed": true,
          "internalType": "bytes32",
          "name": "role",
          "type": "bytes32"
        },
        {
          "indexed": true,
          "internalType": "address",
          "name": "account",
          "type": "address"
        },
        {
          "indexed": true,
          "internalType": "address",
          "name": "sender",
          "type": "address"
        }
      ],
      "name": "RoleGranted",
      "type": "event"
    },
    {
      "anonymous": false,
      "inputs": [
        {
          "indexed": true,
          "internalType": "bytes32",
          "name": "role",
          "type": "bytes32"
        },
        {
          "indexed": true,
          "internalType": "address",
          "name": "account",
          "type": "address"
        },
        {
          "indexed": true,
          "internalType": "address",
          "name": "sender",
          "type": "address"
        }
      ],
      "name": "RoleRevoked",
      "type": "event"
    },
    {
      "anonymous": false,
      "inputs": [
        {
          "indexed": true,
          "internalType": "uint256",
          "name": "batchId",
          "type": "uint256"
        },
        {
          "indexed": false,
          "internalType": "string",
          "name": "status",
          "type": "string"
        }
      ],
      "name": "StatusUpdated",
      "type": "event"
    },
    {
      "inputs": [],
      "name": "AUDITOR_ROLE",
      "outputs": [
        {
          "internalType": "bytes32",
          "name": "",
          "type": "bytes32"
        }
      ],
      "stateMutability": "view",
      "type": "function"
    },
    {
      "inputs": [],
      "name": "DEFAULT_ADMIN_ROLE",
      "outputs": [
        {
          "internalType": "bytes32",
          "name": "",
          "type": "bytes32"
        }
      ],
      "stateMutability": "view",
      "type": "function"
    },
    {
      "inputs": [],
      "name": "MINER_ROLE",
      "outputs": [
        {
          "internalType": "bytes32",
          "name": "",
          "type": "bytes32"
        }
      ],
      "stateMutability": "view",
      "type": "function"
    },
    {
      "inputs": [],
      "name": "REFINER_ROLE",
      "outputs": [
        {
          "internalType": "bytes32",
          "name": "",
          "type": "bytes32"
        }
      ],
      "stateMutability": "view",
      "type": "function"
    },
    {
      "inputs": [],
      "name": "TRANSPORTER_ROLE",
      "outputs": [
        {
          "internalType": "bytes32",
          "name": "",
          "type": "bytes32"
        }
      ],
      "stateMutability": "view",
      "type": "function"
    },
    {
      "inputs": [],
      "name": "batchCounter",
      "outputs": [
        {
          "internalType": "uint256",
          "name": "",
          "type": "uint256"
        }
      ],
      "stateMutability": "view",
      "type": "function"
    },
    {
      "inputs": [
        {
          "internalType": "string",
          "name": "_location",
          "type": "string"
        }
      ],
      "name": "createBatch",
      "outputs": [],
      "stateMutability": "nonpayable",
      "type": "function"
    },
    {
      "inputs": [
        {
          "internalType": "uint256",
          "name": "_batchId",
          "type": "uint256"
        }
      ],
      "name": "getBatch",
      "outputs": [
        {
          "components": [
            {
              "internalType": "uint256",
              "name": "id",
              "type": "uint256"
            },
            {
              "internalType": "address",
              "name": "owner",
              "type": "address"
            },
            {
              "internalType": "string",
              "name": "location",
              "type": "string"
            },
            {
              "internalType": "string",
              "name": "status",
              "type": "string"
            },
            {
              "internalType": "uint256",
              "name": "timestamp",
              "type": "uint256"
            }
          ],
          "internalType": "struct SupplyChain.MineralBatch",
          "name": "",
          "type": "tuple"
        }
      ],
      "stateMutability": "view",
      "type": "function"
    },
    {
      "inputs": [
        {
          "internalType": "bytes32",
          "name": "role",
          "type": "bytes32"
        }
      ],
      "name": "getRoleAdmin",
      "outputs": [
        {
          "internalType": "bytes32",
          "name": "",
          "type": "bytes32"
        }
      ],
      "stateMutability": "view",
      "type": "function"
    },
    {
      "inputs": [
        {
          "internalType": "bytes32",
          "name": "role",
          "type": "bytes32"
        },
        {
          "internalType": "address",
          "name": "account",
          "type": "address"
        }
      ],
      "name": "grantRole",
      "outputs": [],
      "stateMutability": "nonpayable",
      "type": "function"
    },
    {
      "inputs": [
        {
          "internalType": "bytes32",
          "name": "role",
          "type": "bytes32"
        },
        {
          "internalType": "address",
          "name": "account",
          "type": "address"
        }
      ],
      "name": "hasRole",
      "outputs": [
        {
          "internalType": "bool",
          "name": "",
          "type": "bool"
        }
      ],
      "stateMutability": "view",
      "type": "function"
    },
    {
      "inputs": [
        {
          "internalType": "uint256",
          "name": "",
          "type": "uint256"
        }
      ],
      "name": "mineralBatches",
      "outputs": [
        {
          "internalType": "uint256",
          "name": "id",
          "type": "uint256"
        },
        {
          "internalType": "address",
          "name": "owner",
          "type": "address"
        },
        {
          "internalType": "string",
          "name": "location",
          "type": "string"
        },
        {
          "internalType": "string",
          "name": "status",
          "type": "string"
        },
        {
          "internalType": "uint256",
          "name": "timestamp",
          "type": "uint256"
        }
      ],
      "stateMutability": "view",
      "type": "function"
    },
    {
      "inputs": [
        {
          "internalType": "bytes32",
          "name": "role",
          "type": "bytes32"
        },
        {
          "internalType": "address",
          "name": "callerConfirmation",
          "type": "address"
        }
      ],
      "name": "renounceRole",
      "outputs": [],
      "stateMutability": "nonpayable",
      "type": "function"
    },
    {
      "inputs": [
        {
          "internalType": "bytes32",
          "name": "role",
          "type": "bytes32"
        },
        {
          "internalType": "address",
          "name": "account",
          "type": "address"
        }
      ],
      "name": "revokeRole",
      "outputs": [],
      "stateMutability": "nonpayable",
      "type": "function"
    },
    {
      "inputs": [
        {
          "internalType": "bytes4",
          "name": "interfaceId",
          "type": "bytes4"
        }
      ],
      "name": "supportsInterface",
      "outputs": [
        {
          "internalType": "bool",
          "name": "",
          "type": "bool"
        }
      ],
      "stateMutability": "view",
      "type": "function"
    },
    {
      "inputs": [
        {
          "internalType": "uint256",
          "name": "_batchId",
          "type": "uint256"
        },
        {
          "internalType": "address",
          "name": "_newOwner",
          "type": "address"
        }
      ],
      "name": "transferOwnership",
      "outputs": [],
      "stateMutability": "nonpayable",
      "type": "function"
    },
    {
      "inputs": [
        {
          "internalType": "uint256",
          "name": "_batchId",
          "type": "uint256"
        },
        {
          "internalType": "string",
          "name": "_newStatus",
          "type": "string"
        }
      ],
      "name": "updateStatus",
      "outputs": [],
      "stateMutability": "nonpayable",
      "type": "function"
    }
  ],
  "bytecode": "0x608060405234801561001057600080fd5b506100246000801b3361002a60201b60201c565b50610199565b600061003c838361012760201b60201c565b61011c57600160008085815260200190815260200160002060000160008473ffffffffffffffffffffffffffffffffffffffff1673ffffffffffffffffffffffffffffffffffffffff16815260200190815260200160002060006101000a81548160ff0219169083151502179055506100b961019160201b60201c565b73ffffffffffffffffffffffffffffffffffffffff168273ffffffffffffffffffffffffffffffffffffffff16847f2f8788117e7eff1d82e926ec794901d17c78024a50270940304540a733656f0d60405160405180910390a460019050610121565b600090505b92915050565b600080600084815260200190815260200160002060000160008373ffffffffffffffffffffffffffffffffffffffff1673ffffffffffffffffffffffffffffffffffffffff16815260200190815260200160002060009054906101000a900460ff16905092915050565b600033905090565b611c79806101a86000396000f3fe608060405234801561001057600080fd5b506004361061010b5760003560e01c806368233eef116100a257806391d148541161007157806391d14854146102be57806392f82abd146102ee578063a217fddf1461030a578063d1b34dd814610328578063d547741f146103445761010b565b806368233eef146102305780636e1d616e1461024e57806376f46a9b1461026c57806379451cd7146102a05761010b565b806336568abe116100de57806336568abe146101a85780634eabbe77146101c45780635ac44282146101e25780636394f6e6146102125761010b565b806301ffc9a714610110578063248a9ca31461014057806329507f73146101705780632f2ff15d1461018c575b600080fd5b61012a600480360381019061012591906110fd565b610360565b6040516101379190611145565b60405180910390f35b61015a60048036038101906101559190611196565b6103da565b60405161016791906111d2565b60405180910390f35b61018a60048036038101906101859190611281565b6103f9565b005b6101a660048036038101906101a191906112c1565b61053a565b005b6101c260048036038101906101bd91906112c1565b61055c565b005b6101cc6105d7565b6040516101d991906111d2565b60405180910390f35b6101fc60048036038101906101f79190611301565b6105fb565b6040516102099190611459565b60405180910390f35b61021a61080f565b60405161022791906111d2565b60405180910390f35b610238610833565b604051610245919061148a565b60405180910390f35b610256610839565b60405161026391906111d2565b60405180910390f35b61028660048036038101906102819190611301565b61085d565b6040516102979594939291906114fe565b60405180910390f35b6102a86109c3565b6040516102b591906111d2565b60405180910390f35b6102d860048036038101906102d391906112c1565b6109e7565b6040516102e59190611145565b60405180910390f35b61030860048036038101906103039190611694565b610a51565b005b610312610bfb565b60405161031f91906111d2565b60405180910390f35b610342600480360381019061033d91906116dd565b610c02565b005b61035e600480360381019061035991906112c1565b610d70565b005b60007f7965db0b000000000000000000000000000000000000000000000000000000007bffffffffffffffffffffffffffffffffffffffffffffffffffffffff1916827bffffffffffffffffffffffffffffffffffffffffffffffffffffffff191614806103d357506103d282610d92565b5b9050919050565b6000806000838152602001908152602001600020600101549050919050565b3373ffffffffffffffffffffffffffffffffffffffff166002600084815260200190815260200160002060010160009054906101000a900473ffffffffffffffffffffffffffffffffffffffff1673ffffffffffffffffffffffffffffffffffffffff161461049d576040517f08c379a0000000000000000000000000000000000000000000000000000000008152600401610494906117ab565b60405180910390fd5b806002600084815260200190815260200160002060010160006101000a81548173ffffffffffffffffffffffffffffffffffffffff021916908373ffffffffffffffffffffffffffffffffffffffff1602179055508073ffffffffffffffffffffffffffffffffffffffff16827fba8cc72bdfdb4f3e2281c3f17f6be90c470f76dd1106321a2928859835874bc260405160405180910390a35050565b610543826103da565b61054c81610dfc565b6105568383610e10565b50505050565b610564610f01565b73ffffffffffffffffffffffffffffffffffffffff168173ffffffffffffffffffffffffffffffffffffffff16146105c8576040517f6697b23200000000000000000000000000000000000000000000000000000000815260040160405180910390fd5b6105d28282610f09565b505050565b7fddaa901e2fe3bda354fe0ede2785152d5c109282a613fe024a056a3e66c41bb381565b61060361104c565b600060026000848152602001908152602001600020600001540361065c576040517f08c379a000000000000000000000000000000000000000000000000000000000815260040161065390611817565b60405180910390fd5b600260008381526020019081526020016000206040518060a0016040529081600082015481526020016001820160009054906101000a900473ffffffffffffffffffffffffffffffffffffffff1673ffffffffffffffffffffffffffffffffffffffff1673ffffffffffffffffffffffffffffffffffffffff1681526020016002820180546106ea90611866565b80601f016020809104026020016040519081016040528092919081815260200182805461071690611866565b80156107635780601f1061073857610100808354040283529160200191610763565b820191906000526020600020905b81548152906001019060200180831161074657829003601f168201915b5050505050815260200160038201805461077c90611866565b80601f01602080910402602001604051908101604052809291908181526020018280546107a890611866565b80156107f55780601f106107ca576101008083540402835291602001916107f5565b820191906000526020600020905b8154815290600101906020018083116107d857829003601f168201915b505050505081526020016004820154815250509050919050565b7fa952726ef2588ad078edf35b066f7c7406e207cb0003bbaba8cb53eba9553e7281565b60015481565b7f59a1c48e5837ad7a7f3dcedcbe129bf3249ec4fbf651fd4f5e2600ead39fe2f581565b60026020528060005260406000206000915090508060000154908060010160009054906101000a900473ffffffffffffffffffffffffffffffffffffffff16908060020180546108ac90611866565b80601f01602080910402602001604051908101604052809291908181526020018280546108d890611866565b80156109255780601f106108fa57610100808354040283529160200191610925565b820191906000526020600020905b81548152906001019060200180831161090857829003601f168201915b50505050509080600301805461093a90611866565b80601f016020809104026020016040519081016040528092919081815260200182805461096690611866565b80156109b35780601f10610988576101008083540402835291602001916109b3565b820191906000526020600020905b81548152906001019060200180831161099657829003601f168201915b5050505050908060040154905085565b7fa977e1a3444218ff332edf735c56487bbe59922b15c88777d443eb8b78020f4d81565b600080600084815260200190815260200160002060000160008373ffffffffffffffffffffffffffffffffffffffff1673ffffffffffffffffffffffffffffffffffffffff16815260200190815260200160002060009054906101000a900460ff16905092915050565b7fa952726ef2588ad078edf35b066f7c7406e207cb0003bbaba8cb53eba9553e72610a7b81610dfc565b60016000815480929190610a8e906118c6565b91905055506040518060a0016040528060015481526020013373ffffffffffffffffffffffffffffffffffffffff1681526020018381526020016040518060400160405280600581526020017f4d696e65640000000000000000000000000000000000000000000000000000008152508152602001428152506002600060015481526020019081526020016000206000820151816000015560208201518160010160006101000a81548173ffffffffffffffffffffffffffffffffffffffff021916908373ffffffffffffffffffffffffffffffffffffffff1602179055506040820151816002019081610b829190611aba565b506060820151816003019081610b989190611aba565b50608082015181600401559050503373ffffffffffffffffffffffffffffffffffffffff166001547f455fe5771863ad206137a00ecd2103bf528ba811090f3610fb2045972787ea4484604051610bef9190611b8c565b60405180910390a35050565b6000801b81565b610c2c7fa977e1a3444218ff332edf735c56487bbe59922b15c88777d443eb8b78020f4d336109e7565b80610c5d5750610c5c7fddaa901e2fe3bda354fe0ede2785152d5c109282a613fe024a056a3e66c41bb3336109e7565b5b610c9c576040517f08c379a0000000000000000000000000000000000000000000000000000000008152600401610c9390611bfa565b60405180910390fd5b6000600260008481526020019081526020016000206000015403610cf5576040517f08c379a0000000000000000000000000000000000000000000000000000000008152600401610cec90611817565b60405180910390fd5b80600260008481526020019081526020016000206003019081610d189190611aba565b50426002600084815260200190815260200160002060040181905550817fdc280875b120650ffe3edf5f724f07fd086361a32c2a387fe34b495f5679e77d82604051610d649190611b8c565b60405180910390a25050565b610d79826103da565b610d8281610dfc565b610d8c8383610f09565b50505050565b60007f01ffc9a7000000000000000000000000000000000000000000000000000000007bffffffffffffffffffffffffffffffffffffffffffffffffffffffff1916827bffffffffffffffffffffffffffffffffffffffffffffffffffffffff1916149050919050565b610e0d81610e08610f01565b610ffb565b50565b6000610e1c83836109e7565b610ef657600160008085815260200190815260200160002060000160008473ffffffffffffffffffffffffffffffffffffffff1673ffffffffffffffffffffffffffffffffffffffff16815260200190815260200160002060006101000a81548160ff021916908315150217905550610e93610f01565b73ffffffffffffffffffffffffffffffffffffffff168273ffffffffffffffffffffffffffffffffffffffff16847f2f8788117e7eff1d82e926ec794901d17c78024a50270940304540a733656f0d60405160405180910390a460019050610efb565b600090505b92915050565b600033905090565b6000610f1583836109e7565b15610ff057600080600085815260200190815260200160002060000160008473ffffffffffffffffffffffffffffffffffffffff1673ffffffffffffffffffffffffffffffffffffffff16815260200190815260200160002060006101000a81548160ff021916908315150217905550610f8d610f01565b73ffffffffffffffffffffffffffffffffffffffff168273ffffffffffffffffffffffffffffffffffffffff16847ff6391f5c32d9c69d2a47ea670b442974b53935d1edc7fd64eb21e047a839171b60405160405180910390a460019050610ff5565b600090505b92915050565b61100582826109e7565b6110485780826040517fe2517d3f00000000000000000000000000000000000000000000000000000000815260040161103f929190611c1a565b60405180910390fd5b5050565b6040518060a0016040528060008152602001600073ffffffffffffffffffffffffffffffffffffffff1681526020016060815260200160608152602001600081525090565b6000604051905090565b600080fd5b600080fd5b60007fffffffff0000000000000000000000000000000000000000000000000000000082169050919050565b6110da816110a5565b81146110e557600080fd5b50565b6000813590506110f7816110d1565b92915050565b6000602082840312156111135761111261109b565b5b6000611121848285016110e8565b91505092915050565b60008115159050919050565b61113f8161112a565b82525050565b600060208201905061115a6000830184611136565b92915050565b6000819050919050565b61117381611160565b811461117e57600080fd5b50565b6000813590506111908161116a565b92915050565b6000602082840312156111ac576111ab61109b565b5b60006111ba84828501611181565b91505092915050565b6111cc81611160565b82525050565b60006020820190506111e760008301846111c3565b92915050565b6000819050919050565b611200816111ed565b811461120b57600080fd5b50565b60008135905061121d816111f7565b92915050565b600073ffffffffffffffffffffffffffffffffffffffff82169050919050565b600061124e82611223565b9050919050565b61125e81611243565b811461126957600080fd5b50565b60008135905061127b81611255565b92915050565b600080604083850312156112985761129761109b565b5b60006112a68582860161120e565b92505060206112b78582860161126c565b9150509250929050565b600080604083850312156112d8576112d761109b565b5b60006112e685828601611181565b92505060206112f78582860161126c565b9150509250929050565b6000602082840312156113175761131661109b565b5b60006113258482850161120e565b91505092915050565b611337816111ed565b82525050565b61134681611243565b82525050565b600081519050919050565b600082825260208201905092915050565b60005b8381101561138657808201518184015260208101905061136b565b60008484015250505050565b6000601f19601f8301169050919050565b60006113ae8261134c565b6113b88185611357565b93506113c8818560208601611368565b6113d181611392565b840191505092915050565b600060a0830160008301516113f4600086018261132e565b506020830151611407602086018261133d565b506040830151848203604086015261141f82826113a3565b9150506060830151848203606086015261143982826113a3565b915050608083015161144e608086018261132e565b508091505092915050565b6000602082019050818103600083015261147381846113dc565b905092915050565b611484816111ed565b82525050565b600060208201905061149f600083018461147b565b92915050565b6114ae81611243565b82525050565b600082825260208201905092915050565b60006114d08261134c565b6114da81856114b4565b93506114ea818560208601611368565b6114f381611392565b840191505092915050565b600060a082019050611513600083018861147b565b61152060208301876114a5565b818103604083015261153281866114c5565b9050818103606083015261154681856114c5565b9050611555608083018461147b565b9695505050505050565b600080fd5b600080fd5b7f4e487b7100000000000000000000000000000000000000000000000000000000600052604160045260246000fd5b6115a182611392565b810181811067ffffffffffffffff821117156115c0576115bf611569565b5b80604052505050565b60006115d3611091565b90506115df8282611598565b919050565b600067ffffffffffffffff8211156115ff576115fe611569565b5b61160882611392565b9050602081019050919050565b82818337600083830152505050565b6000611637611632846115e4565b6115c9565b90508281526020810184848401111561165357611652611564565b5b61165e848285611615565b509392505050565b600082601f83011261167b5761167a61155f565b5b813561168b848260208601611624565b91505092915050565b6000602082840312156116aa576116a961109b565b5b600082013567ffffffffffffffff8111156116c8576116c76110a0565b5b6116d484828501611666565b91505092915050565b600080604083850312156116f4576116f361109b565b5b60006117028582860161120e565b925050602083013567ffffffffffffffff811115611723576117226110a0565b5b61172f85828601611666565b9150509250929050565b7f4e6f7420416c6c6f77656420546f205472616e73666572204f776e657273686960008201527f702053696e636520596f7520617265204e6f7420546865204f776e6572000000602082015250565b6000611795603d836114b4565b91506117a082611739565b604082019050919050565b600060208201905081810360008301526117c481611788565b9050919050565b7f426174636820446f65736e277420457869737421210000000000000000000000600082015250565b60006118016015836114b4565b915061180c826117cb565b602082019050919050565b60006020820190508181036000830152611830816117f4565b9050919050565b7f4e487b7100000000000000000000000000000000000000000000000000000000600052602260045260246000fd5b6000600282049050600182168061187e57607f821691505b60208210810361189157611890611837565b5b50919050565b7f4e487b7100000000000000000000000000000000000000000000000000000000600052601160045260246000fd5b60006118d1826111ed565b91507fffffffffffffffffffffffffffffffffffffffffffffffffffffffffffffffff820361190357611902611897565b5b600182019050919050565b60008190508160005260206000209050919050565b60006020601f8301049050919050565b600082821b905092915050565b6000600883026119707fffffffffffffffffffffffffffffffffffffffffffffffffffffffffffffffff82611933565b61197a8683611933565b95508019841693508086168417925050509392505050565b6000819050919050565b60006119b76119b26119ad846111ed565b611992565b6111ed565b9050919050565b6000819050919050565b6119d18361199c565b6119e56119dd826119be565b848454611940565b825550505050565b600090565b6119fa6119ed565b611a058184846119c8565b505050565b5b81811015611a2957611a1e6000826119f2565b600181019050611a0b565b5050565b601f821115611a6e57611a3f8161190e565b611a4884611923565b81016020851015611a57578190505b611a6b611a6385611923565b830182611a0a565b50505b505050565b600082821c905092915050565b6000611a9160001984600802611a73565b1980831691505092915050565b6000611aaa8383611a80565b9150826002028217905092915050565b611ac38261134c565b67ffffffffffffffff811115611adc57611adb611569565b5b611ae68254611866565b611af1828285611a2d565b600060209050601f831160018114611b245760008415611b12578287015190505b611b1c8582611a9e565b865550611b84565b601f198416611b328661190e565b60005b82811015611b5a57848901518255600182019150602085019450602081019050611b35565b86831015611b775784890151611b73601f891682611a80565b8355505b6001600288020188555050505b505050505050565b60006020820190508181036000830152611ba681846114c5565b905092915050565b7f4e6f7420417574686f72697a656420546f205570646174652053746174757300600082015250565b6000611be4601f836114b4565b9150611bef82611bae565b602082019050919050565b60006020820190508181036000830152611c1381611bd7565b9050919050565b6000604082019050611c2f60008301856114a5565b611c3c60208301846111c3565b939250505056fea26469706673582212204272b31358e1274f1e1cca2c974a442dd4b9844f6ef5ebbae99844e908bc0d8264736f6c634300081b0033",
  "linkReferences": {},
  "deployedLinkReferences": {}
}